{
  "contractName": "GCD",
  "abi": [
    {
      "constant": false,
      "inputs": [
        {
          "internalType": "int256",
          "name": "a",
          "type": "int256"
        },
        {
          "internalType": "int256",
          "name": "b",
          "type": "int256"
        }
      ],
      "name": "Soluciona",
      "outputs": [
        {
          "internalType": "int256",
          "name": "",
          "type": "int256"
        },
        {
          "internalType": "uint256",
          "name": "",
          "type": "uint256"
        },
        {
          "internalType": "uint256",
          "name": "",
          "type": "uint256"
        }
      ],
      "payable": false,
      "stateMutability": "nonpayable",
      "type": "function"
    },
    {
      "constant": false,
      "inputs": [
        {
          "internalType": "int256",
          "name": "a",
          "type": "int256"
        },
        {
          "internalType": "int256",
          "name": "b",
          "type": "int256"
        },
        {
          "internalType": "int256",
          "name": "gcd",
          "type": "int256"
        },
        {
          "internalType": "int256",
          "name": "x",
          "type": "int256"
        },
        {
          "internalType": "int256",
          "name": "y",
          "type": "int256"
        }
      ],
      "name": "Verifica",
      "outputs": [
        {
          "internalType": "int256",
          "name": "",
          "type": "int256"
        },
        {
          "internalType": "uint256",
          "name": "",
          "type": "uint256"
        },
        {
          "internalType": "uint256",
          "name": "",
          "type": "uint256"
        }
      ],
      "payable": false,
      "stateMutability": "nonpayable",
      "type": "function"
    }
  ],
  "bytecode": "0x608060405234801561001057600080fd5b5061033a806100206000396000f3fe608060405234801561001057600080fd5b50600436106100365760003560e01c80637d99fa841461003b5780639293c84f14610095575b600080fd5b6100716004803603604081101561005157600080fd5b81019080803590602001909291908035906020019092919050505061010d565b60405180848152602001838152602001828152602001935050505060405180910390f35b6100e9600480360360a08110156100ab57600080fd5b810190808035906020019092919080359060200190929190803590602001909291908035906020019092919080359060200190929190505050610149565b60405180848152602001838152602001828152602001935050505060405180910390f35b6000806000806152085a45030390506000805a905061012c888861018c565b915060005a82039050828185965096509650505050509250925092565b6000806000806152085a45030390506000805a905061016b8b8b8b8b8b6101ed565b915060005a8203905082818596509650965050505050955095509592505050565b600081831215801561019f575060008212155b80156101ab5750600083135b6101b457600080fd5b6000839050600083905060005b60008213156101e1578190508183816101d657fe5b0791508092506101c1565b82935050505092915050565b6000848612158015610200575060008512155b801561020c5750600086135b61027e576040517f08c379a000000000000000000000000000000000000000000000000000000000815260040180806020018281038252600f8152602001807f496e707574206e6f742076616c6964000000000000000000000000000000000081525060200191505060405180910390fd5b8482028684020184146102f9576040517f08c379a000000000000000000000000000000000000000000000000000000000815260040180806020018281038252600d8152602001807f474344206e6f742076616c69640000000000000000000000000000000000000081525060200191505060405180910390fd5b8390509594505050505056fea265627a7a72315820333bbdaef69030455c8d30151f0f3421f1315800eced38abc0b1338ff3284ac964736f6c63430005100032",
  "source": "pragma solidity >=0.4.22 <0.9.0;\r\n\r\ncontract GCD {\r\n    // Algoritmo Euclidiano\r\n    function Soluciona(int256 a, int256 b) public returns (int256, uint256, uint256) {\r\n        uint256 consumoInicial = block.gaslimit - gasleft() - 21000;\r\n        int256 resultado;\r\n        uint256 gasAntesDaFuncao = gasleft();\r\n        resultado = algoritmoEuclidiano(a, b);\r\n        uint256 gasUsado = gasAntesDaFuncao - gasleft();\r\n        return (resultado, gasUsado, consumoInicial);\r\n    }\r\n\r\n    function algoritmoEuclidiano(int256 a, int256 b) pure private returns ( int256) {\r\n        require(a >= b && b >= 0 && a > 0);\r\n        int256 _a = a;\r\n        int256 _b = b;\r\n        int256 temp;\r\n        while (_b > 0) {\r\n            temp = _b;\r\n            _b = _a % _b; \r\n            _a = temp;\r\n        }\r\n        return _a;\r\n    }\r\n\r\n    // vamos tentar incluir o certificado no preco\r\n\r\n    // Algoritmo verificador\r\n    function Verifica(int256 a, int256 b, int256 gcd, int256 x, int256 y) public returns (int256,uint256,uint256) {\r\n        uint256 consumoInicial = block.gaslimit - gasleft() - 21000;\r\n        int256 resultado;\r\n        uint256 gasAntesDaFuncao = gasleft();\r\n        resultado = verificaGCD(a, b, gcd, x, y);\r\n        uint256 gasUsado = gasAntesDaFuncao - gasleft();\r\n        return (resultado, gasUsado, consumoInicial);\r\n    }\r\n\r\n    function verificaGCD(int256 a, int256 b, int256 gcd, int256 x, int256 y) private pure returns (int256) {\r\n        require(a >= b && b >= 0 && a > 0, \"Input not valid\");\r\n        \r\n        // check correctnes\r\n        require(gcd == x*a + y*b, \"GCD not valid\");\r\n\r\n        return gcd;\r\n    }\r\n\r\n\r\n}\r\n",
  "sourcePath": "C:\\Users\\Martins\\repos\\algorithms-solidity\\contracts\\GCD.sol",
  "compiler": {
    "name": "solc",
    "version": "0.5.16+commit.9c3226ce.Emscripten.clang"
  },
  "schemaVersion": "3.4.10",
  "updatedAt": "2022-11-13T20:35:03.198Z",
  "networkType": "ethereum",
  "devdoc": {
    "methods": {}
  },
  "userdoc": {
    "methods": {}
  }
}