{
  "contractName": "GCD",
  "abi": [
    {
      "constant": false,
      "inputs": [
        {
          "internalType": "int256",
          "name": "a",
          "type": "int256"
        },
        {
          "internalType": "int256",
          "name": "b",
          "type": "int256"
        }
      ],
      "name": "Soluciona",
      "outputs": [
        {
          "internalType": "int256",
          "name": "",
          "type": "int256"
        },
        {
          "internalType": "uint256",
          "name": "",
          "type": "uint256"
        },
        {
          "internalType": "uint256",
          "name": "",
          "type": "uint256"
        }
      ],
      "payable": false,
      "stateMutability": "nonpayable",
      "type": "function"
    },
    {
      "constant": true,
      "inputs": [
        {
          "internalType": "int256",
          "name": "a",
          "type": "int256"
        },
        {
          "internalType": "int256",
          "name": "b",
          "type": "int256"
        }
      ],
      "name": "algoritmoEuclidiano",
      "outputs": [
        {
          "internalType": "int256",
          "name": "",
          "type": "int256"
        }
      ],
      "payable": false,
      "stateMutability": "pure",
      "type": "function"
    },
    {
      "constant": false,
      "inputs": [
        {
          "internalType": "int256",
          "name": "a",
          "type": "int256"
        },
        {
          "internalType": "int256",
          "name": "b",
          "type": "int256"
        },
        {
          "internalType": "int256",
          "name": "gcd",
          "type": "int256"
        },
        {
          "internalType": "int256",
          "name": "x",
          "type": "int256"
        },
        {
          "internalType": "int256",
          "name": "y",
          "type": "int256"
        }
      ],
      "name": "Verifica",
      "outputs": [
        {
          "internalType": "int256",
          "name": "",
          "type": "int256"
        },
        {
          "internalType": "uint256",
          "name": "",
          "type": "uint256"
        },
        {
          "internalType": "uint256",
          "name": "",
          "type": "uint256"
        }
      ],
      "payable": false,
      "stateMutability": "nonpayable",
      "type": "function"
    },
    {
      "constant": true,
      "inputs": [
        {
          "internalType": "int256",
          "name": "a",
          "type": "int256"
        },
        {
          "internalType": "int256",
          "name": "b",
          "type": "int256"
        },
        {
          "internalType": "int256",
          "name": "gcd",
          "type": "int256"
        },
        {
          "internalType": "int256",
          "name": "x",
          "type": "int256"
        },
        {
          "internalType": "int256",
          "name": "y",
          "type": "int256"
        }
      ],
      "name": "verificaGCD",
      "outputs": [
        {
          "internalType": "int256",
          "name": "",
          "type": "int256"
        }
      ],
      "payable": false,
      "stateMutability": "pure",
      "type": "function"
    }
  ],
  "bytecode": "0x608060405234801561001057600080fd5b50610406806100206000396000f3fe608060405234801561001057600080fd5b506004361061004c5760003560e01c80632d10761014610051578063370b6813146100bb5780637d99fa84146101075780639293c84f14610161575b600080fd5b6100a5600480360360a081101561006757600080fd5b8101908080359060200190929190803590602001909291908035906020019092919080359060200190929190803590602001909291905050506101d9565b6040518082815260200191505060405180910390f35b6100f1600480360360408110156100d157600080fd5b8101908080359060200190929190803590602001909291905050506102f1565b6040518082815260200191505060405180910390f35b61013d6004803603604081101561011d57600080fd5b810190808035906020019092919080359060200190929190505050610352565b60405180848152602001838152602001828152602001935050505060405180910390f35b6101b5600480360360a081101561017757600080fd5b81019080803590602001909291908035906020019092919080359060200190929190803590602001909291908035906020019092919050505061038e565b60405180848152602001838152602001828152602001935050505060405180910390f35b60008486121580156101ec575060008512155b80156101f85750600086135b61026a576040517f08c379a000000000000000000000000000000000000000000000000000000000815260040180806020018281038252600f8152602001807f496e707574206e6f742076616c6964000000000000000000000000000000000081525060200191505060405180910390fd5b8482028684020184146102e5576040517f08c379a000000000000000000000000000000000000000000000000000000000815260040180806020018281038252600d8152602001807f474344206e6f742076616c69640000000000000000000000000000000000000081525060200191505060405180910390fd5b83905095945050505050565b6000818312158015610304575060008212155b80156103105750600083135b61031957600080fd5b6000839050600083905060005b60008213156103465781905081838161033b57fe5b079150809250610326565b82935050505092915050565b6000806000806152085a45030390506000805a905061037188886102f1565b915060005a82039050828185965096509650505050509250925092565b6000806000806152085a45030390506000805a90506103b08b8b8b8b8b6101d9565b915060005a820390508281859650965096505050505095509550959250505056fea265627a7a7231582043e12714998e87c0522cb4964468311cbe5eca7256f6819833223875347022cb64736f6c63430005100032",
  "source": "pragma solidity >=0.4.22 <0.9.0;\r\n\r\ncontract GCD {\r\n    // Algoritmo Euclidiano\r\n    function Soluciona(int256 a, int256 b) public returns (int256, uint256, uint256) {\r\n        uint256 consumoInicial = block.gaslimit - gasleft() - 21000;\r\n        int256 resultado;\r\n        uint256 gasAntesDaFuncao = gasleft();\r\n        resultado = algoritmoEuclidiano(a, b);\r\n        uint256 gasUsado = gasAntesDaFuncao - gasleft();\r\n        return (resultado, gasUsado, consumoInicial);\r\n    }\r\n\r\n    function algoritmoEuclidiano(int256 a, int256 b) pure public returns ( int256) {\r\n        require(a >= b && b >= 0 && a > 0);\r\n        int256 _a = a;\r\n        int256 _b = b;\r\n        int256 temp;\r\n        while (_b > 0) {\r\n            temp = _b;\r\n            _b = _a % _b; \r\n            _a = temp;\r\n        }\r\n        return _a;\r\n    }\r\n\r\n    // vamos tentar incluir o certificado no preco\r\n\r\n    // Algoritmo verificador\r\n    function Verifica(int256 a, int256 b, int256 gcd, int256 x, int256 y) public returns (int256,uint256,uint256) {\r\n        uint256 consumoInicial = block.gaslimit - gasleft() - 21000;\r\n        int256 resultado;\r\n        uint256 gasAntesDaFuncao = gasleft();\r\n        resultado = verificaGCD(a, b, gcd, x, y);\r\n        uint256 gasUsado = gasAntesDaFuncao - gasleft();\r\n        return (resultado, gasUsado, consumoInicial);\r\n    }\r\n\r\n    function verificaGCD(int256 a, int256 b, int256 gcd, int256 x, int256 y) public pure returns (int256) {\r\n        require(a >= b && b >= 0 && a > 0, \"Input not valid\");\r\n        \r\n        // check correctnes\r\n        require(gcd == x*a + y*b, \"GCD not valid\");\r\n\r\n        return gcd;\r\n    }\r\n\r\n\r\n}\r\n",
  "sourcePath": "C:\\Users\\Martins\\repos\\algorithms-solidity\\contracts\\GCD.sol",
  "compiler": {
    "name": "solc",
    "version": "0.5.16+commit.9c3226ce.Emscripten.clang"
  },
  "schemaVersion": "3.4.10",
  "updatedAt": "2022-11-13T13:48:52.291Z",
  "networkType": "ethereum",
  "devdoc": {
    "methods": {}
  },
  "userdoc": {
    "methods": {}
  }
}