{
  "contractName": "KSelect",
  "abi": [
    {
      "constant": true,
      "inputs": [
        {
          "internalType": "uint256",
          "name": "",
          "type": "uint256"
        }
      ],
      "name": "values",
      "outputs": [
        {
          "internalType": "uint256",
          "name": "",
          "type": "uint256"
        }
      ],
      "payable": false,
      "stateMutability": "view",
      "type": "function"
    },
    {
      "constant": false,
      "inputs": [
        {
          "internalType": "uint256",
          "name": "k",
          "type": "uint256"
        }
      ],
      "name": "Soluciona",
      "outputs": [
        {
          "internalType": "uint256[]",
          "name": "",
          "type": "uint256[]"
        },
        {
          "internalType": "uint256",
          "name": "",
          "type": "uint256"
        },
        {
          "internalType": "uint256",
          "name": "",
          "type": "uint256"
        }
      ],
      "payable": false,
      "stateMutability": "nonpayable",
      "type": "function"
    },
    {
      "constant": false,
      "inputs": [
        {
          "internalType": "uint256[]",
          "name": "data",
          "type": "uint256[]"
        }
      ],
      "name": "InsereSemContador",
      "outputs": [],
      "payable": false,
      "stateMutability": "nonpayable",
      "type": "function"
    },
    {
      "constant": false,
      "inputs": [
        {
          "internalType": "uint256[]",
          "name": "data",
          "type": "uint256[]"
        }
      ],
      "name": "Insere",
      "outputs": [],
      "payable": false,
      "stateMutability": "nonpayable",
      "type": "function"
    },
    {
      "constant": true,
      "inputs": [],
      "name": "Consulta",
      "outputs": [
        {
          "internalType": "uint256[]",
          "name": "",
          "type": "uint256[]"
        }
      ],
      "payable": false,
      "stateMutability": "view",
      "type": "function"
    },
    {
      "constant": false,
      "inputs": [
        {
          "internalType": "uint256",
          "name": "k",
          "type": "uint256"
        },
        {
          "internalType": "uint256[]",
          "name": "y",
          "type": "uint256[]"
        }
      ],
      "name": "Verifica",
      "outputs": [
        {
          "internalType": "uint256[]",
          "name": "",
          "type": "uint256[]"
        },
        {
          "internalType": "uint256",
          "name": "",
          "type": "uint256"
        },
        {
          "internalType": "uint256",
          "name": "",
          "type": "uint256"
        }
      ],
      "payable": false,
      "stateMutability": "nonpayable",
      "type": "function"
    }
  ],
  "bytecode": "0x608060405234801561001057600080fd5b50610ddf806100206000396000f3fe608060405234801561001057600080fd5b50600436106100625760003560e01c806334ee5c5f146100675780635e383d211461011f57806368f6acb514610161578063adf5ede0146101f2578063cf21fce914610251578063e80e39c214610309575b600080fd5b61011d6004803603602081101561007d57600080fd5b810190808035906020019064010000000081111561009a57600080fd5b8201836020820111156100ac57600080fd5b803590602001918460208302840111640100000000831117156100ce57600080fd5b919080806020026020016040519081016040528093929190818152602001838360200280828437600081840152601f19601f82011690508083019250505050505050919291929050505061042e565b005b61014b6004803603602081101561013557600080fd5b810190808035906020019092919050505061048d565b6040518082815260200191505060405180910390f35b61018d6004803603602081101561017757600080fd5b81019080803590602001909291905050506104ae565b6040518080602001848152602001838152602001828103825285818151815260200191508051906020019060200280838360005b838110156101dc5780820151818401526020810190506101c1565b5050505090500194505050505060405180910390f35b6101fa6104eb565b6040518080602001828103825283818151815260200191508051906020019060200280838360005b8381101561023d578082015181840152602081019050610222565b505050509050019250505060405180910390f35b6103076004803603602081101561026757600080fd5b810190808035906020019064010000000081111561028457600080fd5b82018360208201111561029657600080fd5b803590602001918460208302840111640100000000831117156102b857600080fd5b919080806020026020016040519081016040528093929190818152602001838360200280828437600081840152601f19601f820116905080830192505050505050509192919290505050610543565b005b6103c96004803603604081101561031f57600080fd5b81019080803590602001909291908035906020019064010000000081111561034657600080fd5b82018360208201111561035857600080fd5b8035906020019184602083028401116401000000008311171561037a57600080fd5b919080806020026020016040519081016040528093929190818152602001838360200280828437600081840152601f19601f8201169050808301925050505050505091929192905050506105d8565b6040518080602001848152602001838152602001828103825285818151815260200191508051906020019060200280838360005b838110156104185780820151818401526020810190506103fd565b5050505090500194505050505060405180910390f35b60008090505b815181101561048957600082828151811061044b57fe5b602002602001015190806001815401808255809150509060018203906000526020600020016000909192909190915055508080600101915050610434565b5050565b6000818154811061049a57fe5b906000526020600020016000915090505481565b606060008060006152085a4503039050606060005a90506104ce87610616565b915060005a82039050828185965096509650505050509193909250565b6060600080548060200260200160405190810160405280929190818152602001828054801561053957602002820191906000526020600020905b815481526020019060010190808311610525575b5050505050905090565b60008090505b81518110156105d457600082828151811061056057fe5b60200260200101519080600181540180825580915050906001820390600052602060002001600090919290919091505550600160008383815181106105a157fe5b60200260200101518152602001908152602001600020600081548092919060010191905055508080600101915050610549565b5050565b606060008060006152085a4503039050606060005a90506105f98888610826565b915060005a82039050828185965096509650505050509250925092565b606060008090506000600160008054905003905060606000805490506040519080825280602002602001820160405280156106605781602001602082028038833980820191505090505b509050600080600090505b6000805490508110156106b5576000818154811061068557fe5b906000526020600020015483828151811061069c57fe5b602002602001018181525050808060010191505061066b565b505b60011561081c578284141561074f576060846040519080825280602002602001820160405280156106f75781602001602082028038833980820191505090505b50905060008090505b858110156107415783818151811061071457fe5b602002602001015182828151811061072857fe5b6020026020010181815250508080600101915050610700565b508095505050505050610821565b60028385018161075b57fe5b04905061076a82858584610b9c565b9050808614156107fd576060866040519080825280602002602001820160405280156107a55781602001602082028038833980820191505090505b50905060008090505b878110156107ef578381815181106107c257fe5b60200260200101518282815181106107d657fe5b60200260200101818152505080806001019150506107ae565b508095505050505050610821565b8086101561081057600181039250610817565b6001810193505b6106b7565b505050505b919050565b60608151831461089e576040517f08c379a000000000000000000000000000000000000000000000000000000000815260040180806020018281038252600e8152602001807f496e76616c6964206c656e67687400000000000000000000000000000000000081525060200191505060405180910390fd5b6000600190505b82518110156108f1578260018203815181106108bd57fe5b60200260200101518382815181106108d157fe5b602002602001015110156108e457600080fd5b80806001019150506108a5565b5060008260018451038151811061090457fe5b6020026020010151905060008090505b6000805490508110156109e157816000828154811061092f57fe5b906000526020600020015410156109d457610961846000838154811061095157fe5b9060005260206000200154610d1a565b6109d3576040517f08c379a000000000000000000000000000000000000000000000000000000000815260040180806020018281038252601d8152602001807f56616c7565206e6f7420666f756e6420696e20696e707574206c69737400000081525060200191505060405180910390fd5b5b8080600101915050610914565b50600080905060006001905060008090505b6001865103811015610b065783868281518110610a0c57fe5b60200260200101511415610a2557808651039150610b06565b8280600101935050856001820181518110610a3c57fe5b6020026020010151868281518110610a5057fe5b602002602001015114610af95760016000878381518110610a6d57fe5b60200260200101518152602001908152602001600020548314610af8576040517f08c379a000000000000000000000000000000000000000000000000000000000815260040180806020018281038252600f8152602001807f436f756e74206e6f742076616c6964000000000000000000000000000000000081525060200191505060405180910390fd5b5b80806001019150506109f3565b506001600084815260200190815260200160002054811115610b90576040517f08c379a00000000000000000000000000000000000000000000000000000000081526004018080602001828103825260118152602001807f436f756e74206e6f742076616c6964203200000000000000000000000000000081525060200191505060405180910390fd5b84935050505092915050565b600080858381518110610bab57fe5b602002602001015190506000868481518110610bc357fe5b60200260200101519050868581518110610bd957fe5b6020026020010151878581518110610bed57fe5b60200260200101818152505080878681518110610c0657fe5b602002602001018181525050600086905060008790505b868111610cb05783898281518110610c3157fe5b60200260200101511015610ca357888281518110610c4b57fe5b60200260200101519250888181518110610c6157fe5b6020026020010151898381518110610c7557fe5b60200260200101818152505082898281518110610c8e57fe5b60200260200101818152505081806001019250505b8080600101915050610c1d565b50878681518110610cbd57fe5b60200260200101519150878181518110610cd357fe5b6020026020010151888781518110610ce757fe5b60200260200101818152505081888281518110610d0057fe5b602002602001018181525050809350505050949350505050565b6000806000905060006001855103905060005b818314610d9c57600282840181610d4057fe5b049050858181518110610d4f57fe5b6020026020010151851415610d6a5760019350505050610da4565b858181518110610d7657fe5b6020026020010151851115610d9057600181019250610d97565b6001810391505b610d2d565b600093505050505b9291505056fea265627a7a7231582089fd20adb75eb901d00c56ab7c98568d1c5d9bb5dfa5280f2342add475e5ab7e64736f6c63430005100032",
  "source": "pragma solidity >=0.4.22 <0.9.0;\r\n\r\ncontract KSelect {\r\n  uint256[] public values;\r\n  mapping(uint256 => uint256) valuesCount;\r\n\r\n    function Soluciona(uint256 k) public returns (uint256[] memory, uint256, uint256) {\r\n        uint256 consumoInicial = block.gaslimit - gasleft() - 21000;\r\n        uint256[] memory resultado;\r\n        uint256 gasAntesDaFuncao = gasleft();\r\n        resultado = quickSelect(k);\r\n        uint256 gasUsado = gasAntesDaFuncao - gasleft();\r\n        return (resultado, gasUsado, consumoInicial);\r\n    }\r\n\r\n    function quickSelect(uint256 k) private returns (uint256[] memory) {\r\n      uint256 left = 0;\r\n      uint256 right = values.length - 1;\r\n      uint256[] memory list = new uint256[](values.length);\r\n      uint256 pivotIndex;\r\n      for(uint i = 0;i<values.length;i++){\r\n        list[i] = values[i];\r\n      }\r\n      while(true){\r\n          if (left == right){\r\n            uint256[] memory response = new uint256[](left);\r\n            for(uint i = 0;i<left;i++){\r\n              response[i] = list[i];\r\n            }\r\n            return response;\r\n          }\r\n          pivotIndex = (left + right) / 2;     // Solidity has no random so we use the middle\r\n          pivotIndex = partition(list, left, right, pivotIndex);\r\n          if (k == pivotIndex)\r\n          {\r\n            uint256[] memory response = new uint256[](k);\r\n            for(uint i = 0;i<k;i++){\r\n              response[i] = list[i];\r\n            }\r\n            return response;\r\n          }\r\n          if (k < pivotIndex){\r\n            right = pivotIndex - 1;\r\n          }\r\n          else{\r\n            left = pivotIndex + 1;\r\n          }\r\n      }\r\n    }\r\n\r\n    function partition(uint256[] memory list, uint256 left, uint256 right, uint256 pivotIndex) private returns (uint256) {\r\n      uint256 pivotValue = list[pivotIndex];\r\n      uint256 temp = list[pivotIndex];\r\n      list[pivotIndex] = list[right];\r\n      list[right] = temp;\r\n      uint256 storeIndex = left;\r\n      for (uint256 i = left;i <=right;i++){\r\n        if (list[i] < pivotValue){\r\n          temp = list[storeIndex];\r\n          list[storeIndex] = list[i];\r\n          list[i] = temp;\r\n          storeIndex++;\r\n        }\r\n      }\r\n      temp = list[right];\r\n      list[right] = list[storeIndex];\r\n      list[storeIndex] = temp;\r\n      return storeIndex;\r\n    }\r\n\r\n\r\n    function InsereSemContador(uint256[] memory data) public {\r\n      for(uint i=0;i<data.length;i++){\r\n        values.push(data[i]);\r\n      }\r\n    }\r\n\r\n    function Insere(uint256[] memory data) public {\r\n      for(uint i=0;i<data.length;i++){\r\n        values.push(data[i]);\r\n        valuesCount[data[i]]++;\r\n      }\r\n    }\r\n\r\n\r\n\r\n    function Consulta() public view returns (uint256[] memory){\r\n      return values;\r\n    }\r\n    \r\n    function Verifica(uint256 k,uint256[] memory y) public returns (uint256[] memory,uint256,uint256) {\r\n      uint256 consumoInicial = block.gaslimit - gasleft() - 21000;\r\n      uint256[] memory resultado;\r\n      uint256 gasAntesDaFuncao = gasleft();\r\n      resultado = verificaQuickSelect(k,y);\r\n      uint256 gasUsado = gasAntesDaFuncao - gasleft();\r\n      return (resultado, gasUsado, consumoInicial);\r\n    }\r\n\r\n    function verificaQuickSelect(uint256 k,uint256[] memory y) private returns (uint256[] memory) {\r\n      require(k == y.length, \"Invalid lenght\"); // check size\r\n\r\n      // check is sorted\r\n      for(uint i=1;i<y.length;i++){\r\n        require(y[i] >= y[i-1]);\r\n      }\r\n\r\n      // check all values less than k-th are on y\r\n      uint256 kThSmaller = y[y.length - 1];\r\n      for(uint i=0;i<values.length;i++){\r\n        if(values[i] < kThSmaller){\r\n          require(binarySearch(y, values[i]), \"Value not found in input list\");\r\n        }\r\n      }\r\n\r\n      // check the number of occurrences are equal for values less the k-th\r\n      uint256 count = 0;\r\n      uint256 kThSmallerCount = 1;\r\n      for(uint i=0;i<y.length-1;i++){\r\n        if(y[i] == kThSmaller)\r\n        {\r\n          kThSmallerCount = y.length - i;\r\n          break;\r\n        }\r\n        count++;\r\n        if(y[i] != y[i+1])\r\n        {\r\n          require(count == valuesCount[y[i]], \"Count not valid\");\r\n        }\r\n      }\r\n\r\n      // check the number of occurrences are less or equal for the k-th\r\n      require(kThSmallerCount <= valuesCount[kThSmaller], \"Count not valid 2\");\r\n      return y;\r\n    }\r\n\r\n    function binarySearch(uint256[] memory y, uint256 value) private returns (bool){\r\n      uint256 low = 0;\r\n      uint256 high = y.length - 1;\r\n      uint256 mid;\r\n      while(low != high){\r\n        mid = (low + high)/2;\r\n        if (value == y[mid]){\r\n            return true;\r\n        }\r\n        else if (value > y[mid]) // x is on the right side\r\n        {\r\n          low = mid + 1;\r\n        } \r\n        else\r\n        {\r\n          high = mid - 1;\r\n        }\r\n      }\r\n      return false;\r\n    }\r\n\r\n}\r\n",
  "sourcePath": "C:\\Users\\Martins\\repos\\algorithms-solidity\\contracts\\KSelect.sol",
  "compiler": {
    "name": "solc",
    "version": "0.5.16+commit.9c3226ce.Emscripten.clang"
  },
  "schemaVersion": "3.4.10",
  "updatedAt": "2022-11-13T20:35:02.457Z",
  "networkType": "ethereum",
  "devdoc": {
    "methods": {}
  },
  "userdoc": {
    "methods": {}
  }
}