{
  "contractName": "KSelect",
  "abi": [
    {
      "anonymous": false,
      "inputs": [
        {
          "indexed": false,
          "internalType": "uint256",
          "name": "x",
          "type": "uint256"
        }
      ],
      "name": "Debug",
      "type": "event"
    },
    {
      "constant": true,
      "inputs": [
        {
          "internalType": "uint256",
          "name": "",
          "type": "uint256"
        }
      ],
      "name": "values",
      "outputs": [
        {
          "internalType": "uint256",
          "name": "",
          "type": "uint256"
        }
      ],
      "payable": false,
      "stateMutability": "view",
      "type": "function"
    },
    {
      "constant": false,
      "inputs": [
        {
          "internalType": "uint256",
          "name": "k",
          "type": "uint256"
        }
      ],
      "name": "Soluciona",
      "outputs": [
        {
          "internalType": "uint256[]",
          "name": "",
          "type": "uint256[]"
        },
        {
          "internalType": "uint256",
          "name": "",
          "type": "uint256"
        },
        {
          "internalType": "uint256",
          "name": "",
          "type": "uint256"
        }
      ],
      "payable": false,
      "stateMutability": "nonpayable",
      "type": "function"
    },
    {
      "constant": false,
      "inputs": [
        {
          "internalType": "uint256",
          "name": "k",
          "type": "uint256"
        }
      ],
      "name": "quickSelect",
      "outputs": [
        {
          "internalType": "uint256[]",
          "name": "",
          "type": "uint256[]"
        }
      ],
      "payable": false,
      "stateMutability": "nonpayable",
      "type": "function"
    },
    {
      "constant": false,
      "inputs": [
        {
          "internalType": "uint256[]",
          "name": "list",
          "type": "uint256[]"
        },
        {
          "internalType": "uint256",
          "name": "left",
          "type": "uint256"
        },
        {
          "internalType": "uint256",
          "name": "right",
          "type": "uint256"
        },
        {
          "internalType": "uint256",
          "name": "pivotIndex",
          "type": "uint256"
        }
      ],
      "name": "partition",
      "outputs": [
        {
          "internalType": "uint256",
          "name": "",
          "type": "uint256"
        }
      ],
      "payable": false,
      "stateMutability": "nonpayable",
      "type": "function"
    },
    {
      "constant": false,
      "inputs": [
        {
          "internalType": "uint256[]",
          "name": "data",
          "type": "uint256[]"
        }
      ],
      "name": "Insere",
      "outputs": [],
      "payable": false,
      "stateMutability": "nonpayable",
      "type": "function"
    },
    {
      "constant": true,
      "inputs": [],
      "name": "Consulta",
      "outputs": [
        {
          "internalType": "uint256[]",
          "name": "",
          "type": "uint256[]"
        }
      ],
      "payable": false,
      "stateMutability": "view",
      "type": "function"
    }
  ],
  "bytecode": "0x608060405234801561001057600080fd5b50610883806100206000396000f3fe608060405234801561001057600080fd5b50600436106100625760003560e01c80630dcdfef61461006757806338a1c89f146100ea5780635e383d21146101d457806368f6acb514610216578063adf5ede0146102a7578063cf21fce914610306575b600080fd5b6100936004803603602081101561007d57600080fd5b81019080803590602001909291905050506103be565b6040518080602001828103825283818151815260200191508051906020019060200280838360005b838110156100d65780820151818401526020810190506100bb565b505050509050019250505060405180910390f35b6101be6004803603608081101561010057600080fd5b810190808035906020019064010000000081111561011d57600080fd5b82018360208201111561012f57600080fd5b8035906020019184602083028401116401000000008311171561015157600080fd5b919080806020026020016040519081016040528093929190818152602001838360200280828437600081840152601f19601f820116905080830192505050505050509192919290803590602001909291908035906020019092919080359060200190929190505050610583565b6040518082815260200191505060405180910390f35b610200600480360360208110156101ea57600080fd5b8101908080359060200190929190505050610701565b6040518082815260200191505060405180910390f35b6102426004803603602081101561022c57600080fd5b8101908080359060200190929190505050610722565b6040518080602001848152602001838152602001828103825285818151815260200191508051906020019060200280838360005b83811015610291578082015181840152602081019050610276565b5050505090500194505050505060405180910390f35b6102af610797565b6040518080602001828103825283818151815260200191508051906020019060200280838360005b838110156102f25780820151818401526020810190506102d7565b505050509050019250505060405180910390f35b6103bc6004803603602081101561031c57600080fd5b810190808035906020019064010000000081111561033957600080fd5b82018360208201111561034b57600080fd5b8035906020019184602083028401116401000000008311171561036d57600080fd5b919080806020026020016040519081016040528093929190818152602001838360200280828437600081840152601f19601f8201169050808301925050505050505091929192905050506107ef565b005b6060600080905060008080549050905060606000805490506040519080825280602002602001820160405280156104045781602001602082028038833980820191505090505b50905060005b60011561057957828414156104a757606060008054905060405190808252806020026020018201604052801561044f5781602001602082028038833980820191505090505b50905060008090505b858110156104995783818151811061046c57fe5b602002602001015182828151811061048057fe5b6020026020010181815250508080600101915050610458565b50809550505050505061057e565b6002838501816104b357fe5b0490506104c282858584610583565b90508086141561055a5760606000805490506040519080825280602002602001820160405280156105025781602001602082028038833980820191505090505b50905060008090505b8781101561054c5783818151811061051f57fe5b602002602001015182828151811061053357fe5b602002602001018181525050808060010191505061050b565b50809550505050505061057e565b8086101561056d57600181039250610574565b6001810193505b61040a565b505050505b919050565b60008085838151811061059257fe5b6020026020010151905060008684815181106105aa57fe5b602002602001015190508685815181106105c057fe5b60200260200101518785815181106105d457fe5b602002602001018181525050808786815181106105ed57fe5b602002602001018181525050600086905060008790505b868111610697578389828151811061061857fe5b6020026020010151101561068a5788828151811061063257fe5b6020026020010151925088818151811061064857fe5b602002602001015189838151811061065c57fe5b6020026020010181815250508289828151811061067557fe5b60200260200101818152505081806001019250505b8080600101915050610604565b508786815181106106a457fe5b602002602001015191508781815181106106ba57fe5b60200260200101518887815181106106ce57fe5b602002602001018181525050818882815181106106e757fe5b602002602001018181525050809350505050949350505050565b6000818154811061070e57fe5b906000526020600020016000915090505481565b60606000807f8a36f5a234186d446e36a7df36ace663a05a580d9bea2dd899c6dd76a075d5fa60006040518082815260200191505060405180910390a160006152085a4503039050606060005a905061077a876103be565b915060005a82039050828185965096509650505050509193909250565b606060008054806020026020016040519081016040528092919081815260200182805480156107e557602002820191906000526020600020905b8154815260200190600101908083116107d1575b5050505050905090565b60008090505b815181101561084a57600082828151811061080c57fe5b6020026020010151908060018154018082558091505090600182039060005260206000200160009091929091909150555080806001019150506107f5565b505056fea265627a7a723158209590932b34d67fd68b65bc055f6a896504311e6f582b39c20141df4dbdaddd8f64736f6c63430005100032",
  "source": "pragma solidity >=0.4.22 <0.9.0;\r\n\r\ncontract KSelect {\r\n  uint256[] public values;\r\n  event Debug(uint256 x);\r\n\r\n\r\n    function Soluciona(uint256 k) public returns (uint256[] memory, uint256, uint256) {\r\n        emit Debug(0);\r\n        uint256 consumoInicial = block.gaslimit - gasleft() - 21000;\r\n        uint256[] memory resultado;\r\n        uint256 gasAntesDaFuncao = gasleft();\r\n        resultado = quickSelect(k);\r\n        uint256 gasUsado = gasAntesDaFuncao - gasleft();\r\n        return (resultado, gasUsado, consumoInicial);\r\n    }\r\n\r\n    function quickSelect(uint256 k) public returns (uint256[] memory) {\r\n      uint256 left = 0;\r\n      uint256 right = values.length;\r\n      uint256[] memory list = new uint256[](values.length);\r\n      uint256 pivotIndex;\r\n      while(true){\r\n          if (left == right){\r\n            uint256[] memory response = new uint256[](values.length);\r\n            for(uint i = 0;i<left;i++){\r\n              response[i] = list[i];\r\n            }\r\n            return response;\r\n          }\r\n          pivotIndex = (left + right) / 2;     // Solidity has no random so we use the middle\r\n          pivotIndex = partition(list, left, right, pivotIndex);\r\n          if (k == pivotIndex)\r\n          {\r\n            uint256[] memory response = new uint256[](values.length);\r\n            for(uint i = 0;i<k;i++){\r\n              response[i] = list[i];\r\n            }\r\n            return response;\r\n          }\r\n          if (k < pivotIndex){\r\n            right = pivotIndex - 1;\r\n          }\r\n          else{\r\n            left = pivotIndex + 1;\r\n          }\r\n      }\r\n    }\r\n\r\n    function partition(uint256[] memory list, uint256 left, uint256 right, uint256 pivotIndex) public returns (uint256) {\r\n      uint256 pivotValue = list[pivotIndex];\r\n      uint256 temp = list[pivotIndex];\r\n      list[pivotIndex] = list[right];\r\n      list[right] = temp;\r\n      uint256 storeIndex = left;\r\n      for (uint256 i = left;i <=right;i++){\r\n        if (list[i] < pivotValue){\r\n          temp = list[storeIndex];\r\n          list[storeIndex] = list[i];\r\n          list[i] = temp;\r\n          storeIndex++;\r\n        }\r\n      }\r\n      temp = list[right];\r\n      list[right] = list[storeIndex];\r\n      list[storeIndex] = temp;\r\n      return storeIndex;\r\n    }\r\n\r\n\r\n    function Insere(uint256[] memory data) public {\r\n      for(uint i=0;i<data.length;i++){\r\n        values.push(data[i]);\r\n      }\r\n    }\r\n\r\n    function Consulta() public view returns (uint256[] memory){\r\n      return values;\r\n    }\r\n\r\n}\r\n",
  "sourcePath": "C:\\Users\\Martins\\repos\\algorithms-solidity\\contracts\\KSelect.sol",
  "compiler": {
    "name": "solc",
    "version": "0.5.16+commit.9c3226ce.Emscripten.clang"
  },
  "schemaVersion": "3.4.10",
  "updatedAt": "2022-11-13T13:48:51.552Z",
  "networkType": "ethereum",
  "devdoc": {
    "methods": {}
  },
  "userdoc": {
    "methods": {}
  }
}